:100000000C949E000C94C6000C94C6000C94C60080
:100010000C94C6000C94C6000C94C6000C94C60048
:100020000C94C6000C94C6000C94C6000C94C60038
:100030000C94C6000C94C6000C94C6000C94C60028
:100040000C94EB020C94C6000C94B9020C9493022D
:100050000C94C6000C94C6000C94C6000C94C60008
:100060000C94C6000C94C60007634236B79BD8A711
:100070001A39685618AEBAAB558C1D3CB7CC5763CD
:10008000BD6DEDFD753EF6177231BF000000803F7B
:1000900008000000BE922449123EABAAAA2ABECD97
:1000A000CCCC4C3E00000080BEABAAAAAA3E000009
:1000B0000000BF000000803F000000000008417801
:1000C000D3BB4387D1133D190E3CC3BD4282AD2B38
:1000D0003E68EC8276BED98FE1A93E4C80EFFFBE30
:1000E00001C4FF7F3F00000000000000000024006A
:1000F00027002A0000000000250028002B0004042F
:1001000004040404040402020202020203030303BF
:10011000030301020408102040800102040810209B
:100120000102040810200000000800020100000382
:10013000040700000000000000002C0511241FBE71
:10014000CFEFD8E0DEBFCDBF11E0A0E0B1E0E8E83E
:10015000F2E102C005900D92A633B107D9F721E074
:10016000A6E3B1E001C01D92A03EB207E1F710E0A6
:10017000CEE9D0E004C02197FE010E943C09CD39B0
:10018000D107C9F70E9435030C9442090C94000072
:10019000EDE2F1E02491E9E1F1E09491E5E0F1E0B4
:1001A000E491EE23C9F0222339F0233001F1A8F4C1
:1001B000213019F1223029F1F0E0EE0FFF1FEC5051
:1001C000FF4FA591B4912FB7F894EC91811126C0FF
:1001D00090959E239C932FBF08952730A9F0283037
:1001E000C9F0243049F7209180002F7D03C0209171
:1001F00080002F7720938000DFCF24B52F7724BD98
:10020000DBCF24B52F7DFBCF2091B0002F7720933B
:10021000B000D2CF2091B0002F7DF9CF9E2BDACF46
:10022000AF92BF92CF92DF92EF92FF920F931F9304
:10023000CF93DF936C017B018B01040F151FEB0142
:100240005E01AE18BF08C017D10759F06991D601F9
:10025000ED91FC910190F081E02DC6010995892B6B
:1002600079F7C501DF91CF911F910F91FF90EF902A
:10027000DF90CF90BF90AF900895FC01538D448DD7
:10028000252F30E0842F90E0821B930B541710F041
:10029000CF96089501970895FC01918D828D98174E
:1002A00061F0A28DAE0FBF2FB11D5D968C91928D26
:1002B0009F5F9F73928F90E008958FEF9FEF089557
:1002C000FC01918D828D981731F0828DE80FF11D20
:1002D000858D90E008958FEF9FEF0895FC01918D3B
:1002E000228D892F90E0805C9F4F821B91098F7334
:1002F0009927089583E491E00E946E0121E0892B03
:1003000009F420E0822F089580E090E0892B29F005
:100310000E947A0181110C9400000895FC01A48DC3
:10032000A80FB92FB11DA35ABF4F2C91848D90E017
:1003300001968F739927848FA689B7892C93A089FA
:10034000B1898C91837080648C93938D848D981384
:1003500006C00288F389E02D80818F7D8083089517
:10036000EF92FF920F931F93CF93DF93EC0181E005
:10037000888F9B8D8C8D98131AC0E889F9898081AC
:1003800085FF15C09FB7F894EE89FF896083E889DF
:10039000F98980818370806480839FBF81E090E0D1
:1003A000DF91CF911F910F91FF90EF900895F62E5E
:1003B0000B8D10E00F5F1F4F0F731127E02E8C8DF8
:1003C0008E110CC00FB607FCFACFE889F98980813D
:1003D00085FFF5CFCE010E948E01F1CFEB8DEC0FA2
:1003E000FD2FF11DE35AFF4FF0829FB7F8940B8F5A
:1003F000EA89FB8980818062CFCFCF93DF93EC01C4
:10040000888D8823B9F0AA89BB89E889F9898C91FC
:1004100085FD03C0808186FD0DC00FB607FCF7CFB8
:100420008C9185FFF2CF808185FFEDCFCE010E94B8
:100430008E01E9CFDF91CF9108953FB7F894809175
:100440003B0190913C01A0913D01B0913E0126B548
:10045000A89B05C02F3F19F00196A11DB11D3FBFFC
:10046000BA2FA92F982F8827BC01CD01620F711DCB
:10047000811D911D42E0660F771F881F991F4A95C5
:10048000D1F70895FC0101900020E9F73197AF0101
:10049000481B590BBC0183E491E00C9410018F922E
:1004A0009F92AF92BF920F931F93CF93DF93CDB7DD
:1004B000DEB7A1970FB6F894DEBF0FBECDBF19A26D
:1004C000423008F44AE08E010F5D1F4F842E912CBC
:1004D000B12CA12CA50194010E941A09E62FB901A3
:1004E000CA01EA30F4F4E05DD801EE938D01232BCC
:1004F000242B252B79F790E080E0109719F0CD019F
:100500000E944202A1960FB6F894DEBF0FBECDBF87
:10051000DF91CF911F910F91BF90AF909F908F90DF
:100520000895E95CE1CF1F920F920FB60F9211244C
:100530002F933F934F935F936F937F938F939F93EB
:10054000AF93BF93EF93FF9383E491E00E948E01FA
:10055000FF91EF91BF91AF919F918F917F916F919B
:100560005F914F913F912F910F900FBE0F901F9071
:1005700018951F920F920FB60F9211242F938F93FD
:100580009F93EF93FF93E0915301F0915401808189
:10059000E0915901F0915A0182FD1BC09081809138
:1005A0005C018F5F8F7320915D01821741F0E091B4
:1005B0005C01F0E0ED5BFE4F958F80935C01FF9155
:1005C000EF919F918F912F910F900FBE0F901F90E1
:1005D00018958081F4CF1F920F920FB60F921124BD
:1005E0002F933F938F939F93AF93BF938091370146
:1005F00090913801A0913901B0913A0130913601C2
:1006000023E0230F2D3758F50196A11DB11D20932E
:1006100036018093370190933801A0933901B0934C
:100620003A0180913B0190913C01A0913D01B09134
:100630003E010196A11DB11D80933B0190933C01A9
:10064000A0933D01B0933E01BF91AF919F918F91D7
:100650003F912F910F900FBE0F901F90189526E895
:10066000230F0296A11DB11DD2CF789484B582606C
:1006700084BD84B5816084BD85B5826085BD85B546
:10068000816085BD80916E00816080936E001092C4
:10069000810080918100826080938100809181003F
:1006A00081608093810080918000816080938000D0
:1006B0008091B10084608093B1008091B00081602E
:1006C0008093B00080917A00846080937A0080915A
:1006D0007A00826080937A0080917A0081608093B2
:1006E0007A0080917A00806880937A001092C1002D
:1006F000E5E2F1E02491E1E1F1E084918823C1F0A9
:1007000090E0880F991FFC01E651FF4FC591D491ED
:10071000FC01EC50FF4FA591B4919FB7F8948881EC
:10072000E22FE0958E2388838C91E823EC939FBF82
:10073000E9E1F1E02491E5E0F1E08491882399F08A
:1007400090E0880F991FFC01E651FF4FA591B491ED
:10075000FC01EC50FF4F859194918FB7F894EC9188
:10076000E22BEC938FBF80E00E94C800E091530120
:10077000F091540182E08083E0914F01F0915001AB
:100780001082E0915101F091520180E1808310923A
:100790005B01E0915701F091580186E08083E09180
:1007A0005501F0915601808180618083E09155016F
:1007B000F0915601808188608083E0915501F0912D
:1007C0005601808180688083E0915501F091560147
:1007D00080818F7D808382E191E00E94420286E2E7
:1007E00091E00E94420215E4C0E0D0E00E941D02A8
:1007F0006B017C0184EF882E99249394A12CB12C59
:100800000E941D026C197D098E099F09683E734084
:1008100081059105A8F321E0821A9108A108B10889
:1008200088EEC80E83E0D81EE11CF11C81149104EF
:10083000A104B10429F710937C0080917A008064B0
:1008400080937A0080917A0086FDFCCF80917800B9
:1008500060917900762F682F072E000C880B990B7A
:100860000E946E0620E030EC4FE754E40E94CB0576
:1008700020E030E040EA50E40E9423076B017C0155
:10088000AC019B0160E070E080EA90E40E945905B1
:10089000A70196010E94CB0520E030E44CE955E425
:1008A0000E94230722EC3FE245E95FEB0E9490079C
:1008B0002EE138E449E559E40E9423076B017C01ED
:1008C0004B015C01C0923F01D0924001E092410196
:1008D000F0924201AC019B010E94E007882331F1B4
:1008E00089E291E00E94420286E291E00E94420287
:1008F00020E030E048E453E460913F017091400112
:1009000080914101909142010E94C60587FFA2C0DB
:1009100081E00E94C800209709F468CF0E947A0104
:10092000882309F463CF0E94000060CF26013701BD
:10093000E89477F82FEF3FEF4FE75FE7C301B2018D
:100940000E94E00781110DC02FEF3FEF4FE75FE7F7
:10095000C301B2010E94C60518161CF48DE291E095
:10096000C1CF2FEF3FEF4FE75FE4C701B6010E9411
:100970001E0718161CF481E391E0B4CF2FEF3FEF70
:100980004FE75FECC701B6010E94C60587FDF3CFB4
:1009900020E030E0A901C701B6010E94C60587FF2B
:1009A0000BC06DE283E491E00E94B0014601570163
:1009B000B7FAB094B7F8B0942AE037ED43EA5BE3B6
:1009C000C501B4010E945A054B015C010E943D061D
:1009D0006B017C010E946C069B01AC01C501B40156
:1009E0000E9459054B015C014AE0C701B6010E9413
:1009F0004F026EE283E491E00E94B00120E030E01B
:100A000040E251E4C501B4010E9423074B015C019F
:100A10000E943D066B01F12CE12C4AE0C701B601B2
:100A20000E944F02C701B6010E946C069B01AC01F7
:100A3000C501B4010E94590520E030E040E251E4D4
:100A40000E9423070E943D0690E080E04AE00E9459
:100A50004F024ACF80E05DCFE3E4F1E013821282DF
:100A600088EE93E0A0E0B0E084839583A683B7830B
:100A700084E091E09183808385EC90E09587848782
:100A800084EC90E09787868780EC90E0918B808B58
:100A900081EC90E0938B828B82EC90E0958B848B41
:100AA00086EC90E0978B868B118E128E138E148EAF
:100AB00008955058BB27AA270E9471050C94E4069C
:100AC0000E94D60638F00E94DD0620F039F49F3FE0
:100AD00019F426F40C94D3060EF4E095E7FB0C947D
:100AE000CD06E92F0E94F50658F3BA17620773077F
:100AF0008407950720F079F4A6F50C9417070EF4F7
:100B0000E0950B2EBA2FA02D0B01B90190010C011D
:100B1000CA01A0011124FF27591B99F0593F50F435
:100B2000503E68F11A16F040A22F232F342F44278D
:100B3000585FF3CF469537952795A795F040539585
:100B4000C9F77EF41F16BA0B620B730B840BBAF055
:100B50009150A1F0FF0FBB1F661F771F881FC2F7C0
:100B60000EC0BA0F621F731F841F48F487957795D4
:100B70006795B795F7959E3F08F0B0CF9395880F8E
:100B800008F09927EE0F9795879508950E94A9067A
:100B900008F481E008950E94DF050C94E4060E94A9
:100BA000DD0658F00E94D60640F029F45F3F29F098
:100BB0000C94CD0651110C9418070C94D3060E9486
:100BC000F50668F39923B1F3552391F3951B550B63
:100BD000BB27AA2762177307840738F09F5F5F4F10
:100BE000220F331F441FAA1FA9F335D00E2E3AF04F
:100BF000E0E832D091505040E695001CCAF72BD067
:100C0000FE2F29D0660F771F881FBB1F26173707B7
:100C10004807AB07B0E809F0BB0B802DBF01FF27E9
:100C200093585F4F3AF09E3F510578F00C94CD06F3
:100C30000C9418075F3FE4F3983ED4F386957795BC
:100C40006795B795F7959F5FC9F7880F911D9695A2
:100C5000879597F90895E1E0660F771F881FBB1FFE
:100C6000621773078407BA0720F0621B730B840BAB
:100C7000BA0BEE1F88F7E09508950E94FD0688F0F4
:100C80009F5798F0B92F9927B751B0F0E1F0660F50
:100C9000771F881F991F1AF0BA95C9F714C0B13091
:100CA00091F00E941707B1E008950C941707672F81
:100CB000782F8827B85F39F0B93FCCF386957795C0
:100CC0006795B395D9F73EF49095809570956195A9
:100CD0007F4F8F4F9F4F0895E89409C097FB3EF4D4
:100CE00090958095709561957F4F8F4F9F4F992379
:100CF000A9F0F92F96E9BB279395F69587957795F7
:100D00006795B795F111F8CFFAF4BB0F11F460FFB6
:100D10001BC06F5F7F4F8F4F9F4F16C0882311F00E
:100D200096E911C0772321F09EE8872F762F05C022
:100D3000662371F096E8862F70E060E02AF09A95BD
:100D4000660F771F881FDAF7880F9695879597F9B2
:100D50000895990F0008550FAA0BE0E8FEEF16164C
:100D60001706E807F907C0F012161306E407F5079F
:100D700098F0621B730B840B950B39F40A2661F013
:100D8000232B242B252B21F408950A2609F4A140B6
:100D9000A6958FEF811D811D089597F99F6780E8C3
:100DA00070E060E008959FEF80EC089500240A94BD
:100DB0001616170618060906089500240A94121636
:100DC0001306140605060895092E0394000C11F469
:100DD000882352F0BB0F40F4BF2B11F460FF04C016
:100DE0006F5F7F4F8F4F9F4F089557FD9058440F6F
:100DF000551F59F05F3F71F04795880F97FB991F7A
:100E000061F09F3F79F08795089512161306140636
:100E1000551FF2CF4695F1DF08C0161617061806C3
:100E2000991FF1CF86957105610508940895E8949E
:100E3000BB2766277727CB0197F908950E94A9065B
:100E400008F48FEF08950E9436070C94E4060E9480
:100E5000D60638F00E94DD0620F0952311F00C94A0
:100E6000CD060C94D30611240C9418070E94F506A5
:100E700070F3959FC1F3950F50E0551F629FF001ED
:100E8000729FBB27F00DB11D639FAA27F00DB11D06
:100E9000AA1F649F6627B00DA11D661F829F22278F
:100EA000B00DA11D621F739FB00DA11D621F839F16
:100EB000A00D611D221F749F3327A00D611D231FEC
:100EC000849F600D211D822F762F6A2F11249F573A
:100ED00050409AF0F1F088234AF0EE0FFF1FBB1F3D
:100EE000661F771F881F91505040A9F79E3F5105FC
:100EF00080F00C94CD060C9418075F3FE4F3983E05
:100F0000D4F3869577956795B795F795E7959F5FA5
:100F1000C1F7FE2B880F911D9695879597F9089537
:100F2000FA01EE0FFF1F309621053105A1F1611581
:100F3000710561F48038BFE39B0749F168949038EC
:100F4000810561F08038BFEF9B0741F099234AF596
:100F5000FF3FE1053105210519F1E8940894E79573
:100F6000D901AA2329F4AB2FBE2FF85FD0F310C00C
:100F7000FF5F70F4A695E0F7F73950F019F0FF3AEB
:100F800038F49F779F930DD00F9007FC90580895E9
:100F900046F00C94D30660E070E080E89FE308958B
:100FA0004FE79F775F934F933F932F930E94900853
:100FB0002F913F914F915F910E9423070C94ED0771
:100FC0000E94A906880B990B089529F416F00C9439
:100FD000CD060C9417070C94D3060E94FD06A8F3C7
:100FE0009638A0F707F80F92E8942BE33AEA48EB1B
:100FF0005FE70E9439070F920F920F924DB75EB7CD
:101000000F920E94D808E8E6F0E00E941F084F9176
:101010005F91EF91FF91E595EE1FFF1F49F0FE579D
:10102000E0684427EE0F441FFA95E1F74195550B10
:101030000E9452080F9007FE0C9446080895DF9313
:10104000CF931F930F93FF92EF92DF927B018C015E
:10105000689406C0DA2EEF010E943607FE01E8947C
:10106000A5912591359145915591A6F3EF010E94E7
:101070007105FE019701A801DA9469F7DF90EF90FE
:10108000FF900F911F91CF91DF9108959B01AC01CB
:1010900060E070E080E89FE30C94CB050C94CD06F3
:1010A0000C940C090E94FD06D8F39923C9F3940F00
:1010B000511DA3F39150504094F059F0882332F021
:1010C000660F771F881F91505040C1F79E3F510512
:1010D0002CF7880F911D9695879597F908955F3F96
:1010E000ACF0983E9CF0BB27869577956795B795B1
:1010F00008F4B1609395C1F7BB0F58F711F460FF86
:10110000E8CF6F5F7F4F8F4F9F4FE3CF0C9418074F
:1011100016F00C940C090C94D30668940C94CD062C
:101120000E94FD06A8F39923C1F3AEF3DF93CF939A
:101130001F930F93FF92C92FDD2788232AF0219751
:10114000660F771F881FDAF720E030E040E85FEB9A
:101150009FE3883920F0803E38F021968F770E94F7
:101160005A05E0E9F0E004C00E945A05EDEBF0E01A
:101170000E941F088B01BE01EC01FB2E6F57710905
:101180007595771F880B990B0E946E0628E132E750
:1011900041E35FE30E943607AF2D9801AE01FF9057
:1011A0000F911F91CF91DF910E9471050C94E4067D
:1011B000FA01DC01AA0FBB1F9B01AC01BF5728F449
:1011C000222733274427507820C0B75190F4AB2F03
:1011D0000024469537952795011CA395D2F300204E
:1011E00071F0220F331F441FB395DAF30ED00C9425
:1011F000590561307105A0E88A07B94630F49B01B2
:10120000AC016627772788279078309621F02083D5
:1012100031834283538308959F3F31F0915020F4EE
:10122000879577956795B795880F911D96958795C2
:1012300097F90895A1E21A2EAA1BBB1BFD010DC050
:10124000AA1FBB1FEE1FFF1FA217B307E407F50776
:1012500020F0A21BB30BE40BF50B661F771F881F52
:10126000991F1A9469F760957095809590959B01E8
:10127000AC01BD01CF010895EE0FFF1F0590F49161
:08128000E02D0994F894FFCF62
:1012880000000000B00110013D01FD016E014C019C
:10129800600148656C6C6F204F53454B2D4172645B
:1012A80075696E6F21000D0A006E616E00696E66C9
:0612B800006F76660000E5
:00000001FF
