S00F000061726475696E6F2E7372656323
S11300000C94A0000C94C8000C94C8000C94C80074
S11300100C94C8000C94C8000C94C8000C94C8003C
S11300200C94C8000C94C5020C94C8000C940B13D7
S11300300C94C8000C94C8000C94C8000C94C8001C
S11300400C94AA080C94C8000C94740B0C94A60B82
S11300500C94C8000C94C8000C94C8000C94C800FC
S11300600C94C8000C94C80007634236B79BD8A709
S11300701A39685618AEBAAB558C1D3CB7CC5763C9
S1130080BD6DEDFD753EF6177231BF000000803F77
S113009008000000BE922449123EABAAAA2ABECD93
S11300A0CCCC4C3E00000080BEABAAAAAA3E000005
S11300B00000BF000000803F0000000000084178FD
S11300C0D3BB4387D1133D190E3CC3BD4282AD2B34
S11300D03E68EC8276BED98FE1A93E4C80EFFFBE2C
S11300E001C4FF7F3F000000000000000008000280
S11300F001000003040700000000000000000102EA
S113010004081020408001020408102001020408A1
S1130110102004040404040404040202020202027F
S113012003030303030300000000250028002B0041
S113013000000000240027002A00AA04A208CC0B17
S113014011241FBECFEFD8E0DEBFCDBF13E0A0E087
S1130150B1E0EEE9F4E302C005900D92A83DB107C9
S1130160D9F726E0A8EDB3E001C01D92A731B2078C
S1130170E1F710E0C0EAD0E004C02197FE010E943C
S11301806F17CD39D107C9F70E94A0040C944D1AFA
S11301900C9407132F923F924F925F926F927F922B
S11301A08F929F92AF92BF92CF92DF92EF92FF9283
S11301B00F931F93CF93DF93E42FF52F419050803B
S11301C04F925F92E42FF52F4DB65EB64192508266
S11301D00C94EA00E62FF72F419050804DBE5EBE8E
S11301E05F904F90E62FF72F41925082DF91CF918D
S11301F01F910F91FF90EF90DF90CF90BF90AF9041
S11302009F908F907F906F905F904F903F902F9032
S11302100C948D0EE62FF72F419150814DBF5EBF98
S11302200C94960E2F923F924F925F926F927F9210
S11302308F929F92AF92BF92CF92DF92EF92FF92F2
S11302400F931F93CF93DF93E42FF52F41905080AA
S11302504F925F92E42FF52F4DB65EB641925082D5
S11302600C940A01E82FF92F419150814DBF5EBFD4
S1130270E62FF72F0994000090E080E00895089598
S1130280CF93DF93EC0160E08E810E94FD0981E051
S113029090E00E94520961E08E810E94FD0981E094
S11302A090E00E94520960E08E810E94FD0984E67C
S11302B090E0DF91CF910C945209CF92DF92EF92AC
S11302C0FF920F931F93CF93DF936C017C0187E020
S11302D0E80EF11CD0E0C0E0062F10E0B8010C2EAF
S11302E002C0759567950A94E2F76170F7018191F0
S11302F07F010E94FD092196C430D10579F7C6011A
S1130300DF91CF911F910F91FF90EF90DF90CF90ED
S11303100C944001CF92DF92EF92FF920F931F93C0
S1130320CF93DF936C017C0187E0E80EF11CD0E0F1
S1130330C0E0062F10E0B8010C2E02C07595679539
S11303400A94E2F76170F70181917F010E94FD092F
S11303502196C830D10579F7C601DF91CF911F915D
S11303600F91FF90EF90DF90CF900C9440011F937A
S1130370CF93DF93EC01162F642F8C810E94FD092B
S11303808D818F3F19F060E00E94FD098F85612FF8
S113039084FF06C0CE01DF91CF911F910C948A0196
S11303A070E084E0759567958A95E1F7CE010E9427
S11303B05D01612FCE01DF91CF911F910C945D01FE
S11303C040E00C94B70161E00E94E00180ED97E009
S11303D00C945209443008F043E0FC01238942178D
S11303E010F04FEF420FFC01E40FF11D2489620F5E
S11303F060680C94E001FC016089262F2460208B46
S11304006C600C94E0010F931F93CF93DF93EC0186
S1130410423018F08F8588608F874B8B1C8A80E46C
S11304208D8B6E8B605C6F8B222329F0413019F425
S11304308F8584608F8761E08C810E94C1098D81E2
S11304408F3F19F061E00E94C10961E08E810E9432
S1130450C1098E0198012C1B3D0B8F8584FD0DC0B5
S113046084E090E00F5F1F4F281739074CF461E0D8
S1130470F80186810E94C109EDCF88E090E0F2CFB7
S113048080E593EC0E94520960E08C810E94FD0992
S113049060E08E810E94FD098D818F3F19F060E03C
S11304A00E94FD096F8564FD33C063E0CE010E94A4
S11304B05D0184E991E10E94520963E0CE010E944A
S11304C05D0184E991E10E94520963E0CE010E943A
S11304D05D0186E990E00E94520962E0CE010E942B
S11304E05D016F856062CE010E94E00184E0888B2B
S11304F0CE010E94FB01CE010E94E30182E0898BC0
S113050066E0CE01DF91CF911F910F910C94E00131
S11305106062CE010E94E00184E991E10E945209E7
S11305206F856062CE010E94E00186E990E00E943E
S113053052096F856062CE010E94E001D2CFCF9252
S1130540EF920F93FC011382128287E991E0918369
S1130550808364838FEF8583468327830087E186C6
S1130560C2861386148615861686178620E041E017
S113057060E1CF010F91EF90CF900C94030241E022
S11305800E94B70181E090E008951F920F920FB688
S11305900F9211242F933F934F935F936F937F9305
S11305A08F939F93AF93BF93EF93FF938091DA035D
S11305B08F5F8093DA03E091DB032091DA038E2FBF
S11305C090E0FC01EE0FFF1FE80FF91FE452FC4F0F
S11305D08181E091DB0382131DC08E2F90E0FC012A
S11305E0EE0FFF1FE80FF91FE452FC4F8281809346
S11305F0B200FF91EF91BF91AF919F918F917F9145
S11306006F915F914F913F912F910F900FBE0F907B
S11306101F9018952091DA038E2F90E0FC01EE0FC5
S1130620FF1FE80FF91FE452FC4F8181821708F77E
S1130630E091DB038E2F90E0FC01EE0FFF1FE80F2B
S1130640F91FE452FC4F808185FF10C0E091DB0369
S11306508E2F90E0FC01EE0FFF1FE80FF91FE4520C
S1130660FC4F808160E08F710E94FD098091DB0363
S11306708F5F8093DB031092DA031092B2008091B3
S1130680DB03882319F18091DB038930F8F4E091CE
S1130690DB038E2F90E0FC01EE0FFF1FE80FF91F24
S11306A0E452FC4F808185FFA4CFE091DB038E2FC1
S11306B090E0FC01EE0FFF1FE80FF91FE452FC4F1E
S11306C0808161E08F710E94FD0993CF8091DB03EB
S11306D0893008F48ECF1092DB038BCFFC0190910C
S11306E0D903983028F49F5F9093D9039083089599
S11306F0108208951F93CF93DF93EC01162F8091FE
S1130700D803811122C0ECEDF3E084EF93E03BE0E9
S113071027E53483258333968E179F07D1F78EE31D
S11307208093DD031092DB031092DA0310927000C1
S11307301092B00082E08093B1001092B20081E088
S113074087BB809370008093D80388818823A1F0AD
S113075061E0812F0E94C109E8818E2F90E0FC01A5
S1130760EE0FFF1FE80FF91FE452FC4F1F71608169
S1130770607E612B606260838881DF91CF911F91DD
S11307800895DC01EC918FEF8E0F8830F8F4CB01E3
S11307906B3C784014F08AEC98E08E3E22E092079D
S11307A014F48EEE92E00897AC01440F452F441FD9
S11307B0550B2E2F30E0F901EE0FFF1FE20FF31F50
S11307C0E452FC4F4183880F80958283089561E051
S11307D084E00E94C10961E087E00E94C10960E0F1
S11307E084E00E94FD0960E087E00E94FD0920E0AA
S11307F044E064E181E194E00E94030220E044E0EB
S113080064E189EF93E00E94030281E194E00E9495
S1130810E30189EF93E00E94E30140E060E081E1BD
S113082094E00E94EA016FE971E081E194E00E94A2
S1130830350C41E060E081E194E00E94EA016EEA57
S113084071E081E194E00E94350C42E060E081E1D6
S113085094E00E94EA016DEB71E081E194E00E9472
S1130860350C43E060E081E194E00E94EA016CEC25
S113087071E081E194E00E94350C40E060E089EF92
S113088093E00E94EA016BED71E089EF93E00E942E
S1130890350C41E060E089EF93E00E94EA0167EEE5
S11308A071E089EF93E00E94350C42E060E089EF4B
S11308B093E00E94EA0164EF71E089EF93E00E9403
S11308C0350C60ED77E080E090E00E94190981E149
S11308D094E00E94E30189EF93E00E94E30144E67F
S11308E050E06AE070E080E00E94B50D44EF51E012
S11308F064E170E081E00C94B50DCF93DF9300D0F8
S1130900CDB7DEB78DB79EB79A8389838091F703FD
S11309109091F803892B31F489819A819093F8039B
S11309208093F7030F900F90DF91CF91089526E005
S113093040E052EC61E070E089E795E00C94120B22
S11309400E945D090E94970480E00E944A0C90E096
S113095080E00895CF92EF920F938DE0C82E98E037
S1130960E92E06E025E04BE06CE081E194E00E9492
S11309709F0223E1C22E32E1E32E01E120E143E0B4
S113098062E089EF93E00E949F020F91EF90CF9075
S11309900895809188019091890183319105DCF457
S11309A08231910551F481E02091860130918701D3
S11309B02E3131057CF480E00DC0873091055CF068
S11309C00797C9F781E020918601309187012E3184
S11309D031058CF7089581E00895CF92DF92EF926C
S11309E0FF92181619060CF087C0BC01072E000CE4
S11309F0880B990B0E94A61420E030EC4FE754E4D6
S1130A000E94031420E030E040EA50E40E945B15A9
S1130A106B017C012FE632E143E85AE30E94FE13A6
S1130A2087FF08C03FE6C32E32E1D32E33E8E32E1E
S1130A303AE3F32EA701960160E070E080EA90E4C7
S1130A400E949113A70196010E94031420E030E450
S1130A504CE955E40E945B156B017C0120E030E019
S1130A6040E85FE30E94FE1387FF06C0C12CD12C2F
S1130A7020E8E22E2FE3F22E22EC3FE245E95FEB81
S1130A80C701B6010E94C8152EE138E449E559E4CE
S1130A900E945B156B017C0120E030E040E85FE3DD
S1130AA00E94FE1387FD21C020E030EC49E754E4A6
S1130AB0C701B6010E94561518163CF4C12C90ECDF
S1130AC0D92E99E7E92E94E4F92E20E030E040E0B5
S1130AD05FE3C701B6010E9492130E947514CB0113
S1130AE0FF90EF90DF90CF900895C12CD12C80E837
S1130AF0E82E8FE3F82EE9CF87EE93E0F1CFCF9283
S1130B00DF92EF92FF920F931F93CF93DF938EE0C8
S1130B100E942B0A7C018FE00E942B0A8C01C701E2
S1130B200E94ED04EC01C8010E94ED046C0183E015
S1130B300E94320DEEE5F5E0208131812C0F3D1F3E
S1130B403695279582819381C80ED91ED694C79471
S1130B5031832083D382C2822C0D3D1D3695279587
S1130B6035832483F782E6821187008781E08287B8
S1130B7083E00E946F0D62E070E082E00E94120E3A
S1130B8061E070E083E00E94120EDF91CF911F912B
S1130B900F91FF90EF90DF90CF900C94180DCF93AE
S1130BA0DF9300D0CDB7DEB780916D0581110FC002
S1130BB069E070E08FE695E00E947A036AE070E0F5
S1130BC08EE695E00E947A0381E080936D0582E0D1
S1130BD090E00E94D70DBE016F5F7F4F82E00E94BC
S1130BE04D0E898181FFF3CF83E00E94320DE090A6
S1130BF05E05F0905F05009160051091610581E04C
S1130C0094EFE91691E0F90608F480E080936B050F
S1130C1081E0043F91E0190708F480E080936C05BB
S1130C2083E00E946F0D84EFE81681E0F80608F077
S1130C306BC09EEEE92E92E0F92E043F114008F0BD
S1130C4068C00EEE12E084E00E94320DF0928D0135
S1130C50E0928C0110938B0100938A0184E00E943E
S1130C606F0D84E00E94320D80919001909191016A
S1130C7020918C0130918D01821793072CF40F96EB
S1130C8090939101809390018091900190919101B2
S1130C90281739072CF40F979093910180939001B2
S1130CA080918E0190918F0120918A0130918B0166
S1130CB0821793072CF40F9690938F0180938E01E3
S1130CC080918E0190918F01281739072CF40F978A
S1130CD090938F0180938E016091900170919101A6
S1130CE08FE695E00E94C10360918E0170918F019F
S1130CF08EE695E00E94C10384E00E946F0D82E0BD
S1130D0090E00E94740E63CF8AECE82E88E0F82EFF
S1130D1094CF0AEC18E097CFCF93DF9300D0CDB7F0
S1130D20DEB781E090E00E94D70DBE016F5F7F4F78
S1130D3083E00E944D0E898180FFF3CF82E00E9400
S1130D40320D83E00E94320D0E94C90411E001E0DB
S1130D50811112C001E080915E0590915F05893C8C
S1130D60910508F000E011E0809160059091610523
S1130D70893C910508F010E0602F84E00E94FD0991
S1130D80612F87E00E94FD090093690510936A05AD
S1130D9083E00E946F0D82E00E946F0D81E090E07D
S1130DA00E94740EBECF8F929F92AF92BF92CF9249
S1130DB0DF92EF92FF920F931F93CF93DF93CDB700
S1130DC0DEB765970FB6F894DEBF0FBECDBF83E0E4
S1130DD00E94320D80916805882309F469C1E0906E
S1130DE05E05F0905F05C0906005D090610510919C
S1130DF0620500916305B0906905A0906A05909022
S1130E006B0580906C0583E00E946F0D81E00E9469
S1130E10320D0F931F93DF92CF92FF92EF9287E4EC
S1130E2093E09F938F938E010F5F1F4F1F930F9338
S1130E300E94751740E060E081E194E00E94EA01BD
S1130E40B80181E194E00E94350C6CEA73E081E121
S1130E5094E00E94350C0FB6F894DEBF0FBECDBFF0
S1130E6023E133E0882011F02FE033E083E193E0C5
S1130E70992011F08FE093E03F932F939F938F93EA
S1130E808BE593E09F938F931F930F930E947517A5
S1130E9041E060E081E194E00E94EA01B80181E16F
S1130EA094E00E94350C69EA73E081E194E00E94C9
S1130EB0350C0FB6F894DEBF0FBECDBF2AE133E088
S1130EC0AA2011F027E133E08AE193E0BB2011F07E
S1130ED087E193E03F932F939F938F938BE693E067
S1130EE09F938F931F930F930E94751742E060E0C6
S1130EF081E194E00E94EA01B80181E194E00E945A
S1130F00350C6CEA73E081E194E00E94350C809129
S1130F1085018F93809184018F93809187018F93B2
S1130F20809186018F93809189018F9380918801AC
S1130F308F938BE793E09F938F931F930F930E945C
S1130F40751743E060E081E194E00E94EA01B80192
S1130F5081E194E00E94350C6AEA73E081E194E057
S1130F600E94350CEC18FD080FB6F894DEBF0FBED6
S1130F70CDBF2EE1C22E23E0D22E33E2A32E33E0E6
S1130F80B32E33E3E316F104ACF44CE3C42E43E094
S1130F90D42E58E3A52E53E0B52E8EECE8168FEF31
S1130FA0F80644F48BE2C82E83E0D82E90E3A92EF1
S1130FB093E0B92E40E060E089EF93E00E94EA01FB
S1130FC06FE873E089EF93E00E94350C41E060E044
S1130FD089EF93E00E94EA01B50189EF93E00E9452
S1130FE0350C62EA73E089EF93E00E94350CFF92BE
S1130FF0EF92DF92CF9280EB93E09F938F931F93B6
S11310000F930E94751742E060E089EF93E00E941D
S1131010EA01B80189EF93E00E94350C67EA73E0B6
S113102089EF93E00E94350C0E94C9040FB6F8942E
S1131030DEBF0FBECDBF811146C08AE193E09F930E
S11310408F938CEB93E09F938F931F930F930E9446
S1131050751743E060E089EF93E00E94EA01B8016C
S113106089EF93E00E94350C63EA73E089EF93E023
S11310700E94350C81E00E946F0D0E94180D0F90A4
S11310800F900F900F900F900F9065960FB6F894F5
S1131090DEBF0FBECDBFDF91CF911F910F91FF90A7
S11310A0EF90DF90CF90BF90AF909F908F90089576
S11310B0812C912CA12CB12C10E000E0D12CC12C5E
S11310C0F12CE12CA0CE83E493E0B9CF809184018C
S11310D09091850101969093850180938401CC972A
S11310E06CF0809186019091870110928501109295
S11310F084010196909387018093860180918601F3
S113110090918701CC976CF080918801909189012E
S11311101092870110928601019690938901809321
S113112088018091880190918901489724F0109258
S113113089011092880161E070E083E00E94120E40
S11311400C94180D8FE695E00E946E038EE695E0F0
S11311500C946E031F920F920FB60F9211242F93CB
S11311603F938F939F93AF93BF9380917105909119
S11311707205A0917305B09174053091700523E058
S1131180230F2D3758F50196A11DB11D209370052D
S11311908093710590937205A0937305B0937405C1
S11311A08091750590917605A0917705B0917805A9
S11311B00196A11DB11D8093750590937605A093AA
S11311C07705B0937805BF91AF919F918F913F912F
S11311D02F910F900FBE0F901F90189526E8230FA4
S11311E00296A11DB11DD2CF3FB7F8948091750529
S11311F090917605A0917705B091780526B5A89BC6
S113120005C02F3F19F00196A11DB11D3FBFBA2F94
S1131210A92F982F8827BC01CD01620F711D811D54
S1131220911D42E0660F771F881F991F4A95D1F7D9
S113123008958F929F92AF92BF92CF92DF92EF92D6
S1131240FF926B017C010E94F4084B015C01C11404
S1131250D104E104F104E9F00E943D0C0E94F40879
S1131260681979098A099B09683E734081059105CB
S113127070F321E0C21AD108E108F10888EE880E63
S113128083E0981EA11CB11CC114D104E104F10433
S113129029F7FF90EF90DF90CF90BF90AF909F9091
S11312A08F9008958230910538F0880F991F880F28
S11312B0991F05970197F1F70895789484B5826092
S11312C084BD84B5816084BD85B5826085BD85B5E6
S11312D0816085BDEEE6F0E0808181608083E1E895
S11312E0F0E01082808182608083808181608083CD
S11312F0E0E8F0E0808181608083E1EBF0E08081D0
S113130084608083E0EBF0E0808181608083EAE7A1
S1131310F0E080818460808380818260808380812A
S1131320816080838081806880831092C1000895E9
S1131330833081F028F4813099F08230A9F0089547
S11313408730A9F08830C9F08430B1F480918000EE
S11313508F7D03C0809180008F77809380000895F3
S113136084B58F7784BD089584B58F7DFBCF80913C
S1131370B0008F778093B00008958091B0008F7D86
S1131380F9CFCF93DF9390E0FC01E250FF4F24911B
S11313908E5E9E4FFC0184918823C9F090E0880FF3
S11313A0991FFC01E05DFE4FA591B491FC01EA5D3B
S11313B0FE4FC591D49161110DC09FB7F8948C91E3
S11313C0209582238C938881282328839FBFDF91D3
S11313D0CF910895623051F49FB7F8943C91822FD5
S11313E0809583238C93E8812E2BEFCF8FB7F894CD
S11313F0EC912E2B2C938FBFEACF1F93CF93DF93C7
S1131400282F30E0F901E651FF4F8491F901E250B1
S1131410FF4FD491F901EE5EFE4FC491CC23A9F0A5
S1131420162F81110E949809EC2FF0E0EE0FFF1F98
S1131430EA5DFE4FA591B4918FB7F894EC91111128
S113144008C0D095DE23DC938FBFDF91CF911F912D
S11314500895DE2BF8CF8E3008F08E502091920143
S113146090E4299F900111248770822B80937C0043
S113147080917A00806480937A0080917A0086FD5E
S1131480FCCF80917800909179000895FC01918DB2
S1131490228D892F90E0805C9F4F821B91098F736E
S11314A099270895FC01918D828D981731F0828DD2
S11314B0E80FF11D858D90E008958FEF9FEF08955B
S11314C0FC01918D828D981761F0A28DAE0FBF2F14
S11314D0B11D5D968C91928D9F5F9F73928F90E06A
S11314E008958FEF9FEF0895FC01538D448D252FB0
S11314F030E0842F90E0821B930B541710F0CF96AA
S1131500089501970895FC01A48DA80FB92FB11D6A
S1131510A35ABF4F2C91848D90E001968F73992725
S1131520848FA689B7892C93A089B1898C91837003
S113153080648C93938D848D981306C00288F389FC
S1131540E02D80818F7D80830895CF93DF93EC011C
S1131550888D8823B9F0AA89BB89E889F9898C9197
S113156085FD03C0808186FD0DC00FB607FCF7CF53
S11315708C9185FFF2CF808185FFEDCFCE010E9453
S1131580830AE9CFDF91CF910895EF92FF920F93F1
S11315901F93CF93DF93EC0181E0888F9B8D8C8D1B
S11315A098131AC0E889F989808185FF15C09FB70F
S11315B0F894EE89FF896083E889F98980818370D2
S11315C0806480839FBF81E090E0DF91CF911F9181
S11315D00F91FF90EF900895F62E0B8D10E00F5FA2
S11315E01F4F0F731127E02E8C8D8E110CC00FB678
S11315F007FCFACFE889F989808185FFF5CFCE0110
S11316000E94830AF1CFEB8DEC0FFD2FF11DE35AFD
S1131610FF4FF0829FB7F8940B8FEA89FB89808192
S11316208062CFCFCF92DF92EF92FF921F93CF933E
S1131630DF93EC016A017B01122FE889F98982E0CA
S11316408083C11481EED806E104F104A1F060E0C6
S113165079E08DE390E0A70196010E944D17215097
S11316603109410951095695479537952795211513
S113167080E1380798F0E889F989108260E874E815
S11316808EE190E0A70196010E944D172150310987
S1131690410951095695479537952795EC85FD8560
S11316A03083EE85FF852083188EEC89FD891083B5
S11316B0EA89FB89808180618083EA89FB89808152
S11316C088608083EA89FB89808180688083EA89D5
S11316D0FB8980818F7D8083DF91CF911F91FF9063
S11316E0EF90DF90CF9008951F920F920FB60F9254
S11316F011242F938F939F93EF93FF93E091890588
S1131700F0918A058081E0918F05F091900582FD2A
S11317101BC09081809192058F5F8F7320919305F8
S1131720821741F0E0919205F0E0E758FA4F958F67
S113173080939205FF91EF919F918F912F910F903C
S11317400FBE0F901F9018958081F4CF1F920F92B7
S11317500FB60F9211242F933F934F935F936F9380
S11317607F938F939F93AF93BF93EF93FF9389E7F7
S113177095E00E94830AFF91EF91BF91AF919F91F1
S11317808F917F916F915F914F913F912F910F9026
S11317900FBE0F901F901895E9E7F5E013821282AF
S11317A088EE93E0A0E0B0E084839583A683B783BA
S11317B089EC93E09183808385EC90E0958784871E
S11317C084EC90E09787868780EC90E0918B808B07
S11317D081EC90E0938B828B82EC90E0958B848BF0
S11317E086EC90E0978B868B118E128E138E148E5E
S11317F00895AF92BF92CF92DF92EF92FF920F9330
S11318001F93CF93DF936C017B018B01040F151F92
S1131810EB015E01AE18BF08C017D10759F06991FA
S1131820D601ED91FC910190F081E02DC60109955E
S1131830892B79F7C501DF91CF911F910F91FF900B
S1131840EF90DF90CF90BF90AF900895FB0101908F
S11318500020E9F73197AF01461B570BDC01ED91EE
S1131860FC910280F381E02D09946115710511F05A
S11318700C94260C90E080E00895089568EE73E0DF
S113188080E090E00C943313809118029091190237
S11318900C94B0114F925F926F927F928F929F92AD
S11318A0AF92BF92CF92DF92EF92FF920F931F936A
S11318B0CF93DF9300D0CDB7DEB700911202109121
S11318C013029FB7F894D80118962D913C91232BBD
S11318D0B1F09FBF81E090E00F900F90DF91CF9126
S11318E01F910F91FF90EF90DF90CF90BF90AF903A
S11318F09F908F907F906F905F904F900895E82E07
S113190089E093E19A8389830E943E0CC090160279
S1131910D090170281E090E0F80191878087E286F9
S11319200E94E70360901E0270901F02F4E0EF9E95
S1131930700111246E0C7F1CD30112968D909C9023
S1131940B12CA12C46E0542EA814B90491F5409072
S11319501A0250901B025801E2E0AE0EB11C4E0C6C
S11319605F1CD20112966D907C90F12CE12C88249E
S11319708394912CE614F704B1F5F80180859185E0
S1131980019721F482E090E091878087D80118962E
S11319908D919C91029751F4F60162817381AB01A0
S11319A0C6010E941201C6010E94DD0F90E080E092
S11319B093CFD301ED91FC915A9CC0015B9C900D97
S11319C01124E80FF91FA081B1812481358142815E
S11319D05381BD0112968D919C910E947612BFEFA6
S11319E0AB1ABB0AB1CFD201ED91FC91C701880FAC
S11319F0991FE80FF91F40815181DA011496ED9186
S1131A00FC9180818F5F808393828282F80164815C
S1131A107581DB018D919C911197958384831D922F
S1131A201C92C5010E949A0FBFEFEB1AFB0AA2CFCA
S1131A30E0911202F0911302A081B181878588237D
S1131A4019F0178685858FBF8189882311F0118A43
S1131A5078948FB7F89461EF72E112968D919C910E
S1131A600E943201CF93DF9390E0209108023091DD
S1131A7009028217930780F5E0911202F091130294
S1131A80408151812091060230910702880F991FED
S1131A90820F931FDC016D917C91FB01C081D18188
S1131AA0DA011496ED91FC91DB0112969C918181EF
S1131AB02FB7F894891708F491835C834B832FBF65
S1131AC024813581398328838A837583648390E0F4
S1131AD080E0DF91CF91089583E090E0FACF1F93E7
S1131AE0CF93DF9390E0209108023091090282178E
S1131AF09307C0F5E0911202F0911302C081D181E5
S1131B00EC81FD812091060230910702880F991F14
S1131B10820F931FDC018D919C91DC012D913C91EE
S1131B201FB7F89484819581DC018D919C91DC012F
S1131B308D919C9195838483892B91F0D901129680
S1131B408C918183F9011482138280E092E00E94D7
S1131B50EA101FBF90E080E0DF91CF911F910895BC
S1131B608C85EFCF83E090E0F7CFCF9390E0209186
S1131B7010023091110282179307B0F49A01AB015D
S1131B80E0910E02F0910F02880F991FE80FF91FE0
S1131B9060817181FB0182819381CFB7F8940E94A7
S1131BA07612CFBFCF91089583E090E0FBCFDF9210
S1131BB0EF92FF920F931F93CF93DF930091120242
S1131BC010911302F801E080F180F701C481D581FE
S1131BD0DFB6F8942885398528233923232BB9F4D3
S1131BE09F838E83B8016E5F7F4F82E192E00E94F3
S1131BF0A10F9B878A8783E090E09B838A83F80107
S1131C0060817181C7010E94B0121F821E82DFBEF3
S1131C1090E080E0DF91CF911F910F91FF90EF90C2
S1131C20DF9008951F93CF93DF9300D0CDB7DEB735
S1131C3090E020910402309105028217930760F02E
S1131C4083E090E09A83898389819A810F900F9031
S1131C50DF91CF911F9108952091020230910302E8
S1131C60880F991F820F931FFC01808191811FB7F8
S1131C70F894AE014F5F5F4F0E94F20F009759F046
S1131C80BC0180E092E00E944E10892B21F080E09C
S1131C9092E00E94EA101FBFD7CF90E02091040287
S1131CA03091050282179307C8F420910202309103
S1131CB00302880F991F820F931FDC01ED91FC91A1
S1131CC00480F581E02D6115710559F080859185B9
S1131CD0FB019183808390E080E0089583E090E0AD
S1131CE008958EE090E00895E0911202F0911302BD
S1131CF00190F081E02D0480F581E02D4FB7F89438
S1131D009C0120953095808591858223932391872A
S1131D1080874FBF90E080E00895DC011496ED9138
S1131D20FC9184E090E0938382830895EC01EC813C
S1131D30FD81818124E030E0338322838F3F09F0E9
S1131D407894E985FA850995E0911202F0911302DD
S1131D50108A8785882319F0178685858FBF818926
S1131D60882311F0118A78948FB7F8948F8198851D
S1131D70EC81FD81029709F5A481B581109731F4B6
S1131D8061EF72E18A819B810E9432010D90BC91C6
S1131D90A02D14961C921E9213978D919C9195835D
S1131DA08483EACF0D90BC91A02D14961C921E92B0
S1131DB013978D919C9195838483A481B581109709
S1131DC089F7DECF0F931F93CF93DF93CFB7F894A8
S1131DD080E092E00E94EA10CFBF009112021091BD
S1131DE01302C0911402D0911502F80180859185E7
S1131DF0029751F08091160290911702DF91CF91D2
S1131E001F910F910C94D612209779F3FE01099536
S1131E10ECCF0F931F93CF93DF93EC01A881B9818B
S1131E20EB01E881F9811696CD91DC911797209703
S1131E30C1F18A819B81309709F43FC0EC010C8188
S1131E401D8122813381E9014C815D81E801398161
S1131E50EA012981321788F522E030E0E8013B836A
S1131E602A8320813181EB0139832883C281D38184
S1131E702C813D8116964D915C9117975183408337
S1131E801796FC93EE931697CD93DC934C85F9014A
S1131E905181541708F44183DF91CF911F910F9121
S1131EA00895309751F0EC018C819D81EC014C81B7
S1131EB05D8122E030E0EA01D2CF90E080E0ECCF17
S1131EC0CF93DF93DB011296ED91FC9141155105FF
S1131ED0A1F02385DC01ED91FC91B0E0A0E0309706
S1131EE089F4109709F16D937C9390E080E0DB0115
S1131EF0ED93FC93DF91CF9108950480F581E02D5B
S1131F002181E8CFC281D3814115510541F03B8540
S1131F10321738F3DF010190F081E02DE0CF0C801F
S1131F20DD81C02D3981F4CFDC016D937C9381E098
S1131F3090E0DDCFFB015383428341E050E00C94F9
S1131F40600FEF92FF920F931F93CF93DF938C0157
S1131F50FC01C081D181EE80FF80F70180819181F5
S1131F609F838E83C8010E94090F892B41F4EE815F
S1131F70FF81309761F08281938199838883C701BF
S1131F80DF91CF911F910F91FF90EF900895F80189
S1131F9084819581F2CFDC011496ED91FC91159723
S1131FA090811D968C91981728F49F5F908390E000
S1131FB080E0089584E090E00895DC011496ED91AA
S1131FC0FC9115971B968C9181838081815080832D
S1131FD0811103C013821282089581E090E09383FB
S1131FE082830895DC011496ED91FC91808591859E
S1131FF0862B972B91878087DA011D921C9286810C
S1132000978168237923672B39F08285938500971C
S113201029F013861286089590E080E00895E091F7
S11320200202F091030290E0880F991FE80FF91F54
S113203060817181DB011496ED91FC9180818F5F49
S1132040808350E040E080E092E00C940511AB0105
S1132050FB01A481B581E0911202F0911302129662
S11320608D919C911397892B51F481E090E0139604
S11320709C938E93129719961C921E921897A48182
S1132080B5818D919C9111979583848311961C92AF
S11320901E92BD01CF0102960C949A0F0F931F93C9
S11320A0CF93DF93DB0112964D915C91FA01C481C9
S11320B0D581009112021091130282E090E09B837B
S11320C08A8383858983C80102960E949A0F0197A7
S11320D091F4D801ED91FC910480F581E02D81E02B
S11320E090E039812181231708F080E0DF91CF91BE
S11320F01F910F91089580E090E0F8CFAF92BF92C6
S1132100CF92DF92EF92FF920F931F93CF93DF93BF
S1132110C0911202D0911302FE01E190F1906F017F
S1132120F70104811581FB01F182E082F8018281CB
S11321309381049731F5B60182E192E00E94A10FE8
S11321405C01C880D980EC14FD04B1F0C7010E9481
S1132150DD0F8C819D81F50191838083BD82AC82EA
S1132160C601DF91CF911F910F91FF90EF90DF9007
S1132170CF90BF90AF900895F80180818150808303
S1132180E8CF6E817F81FB01808191819F838E8363
S1132190F7018385F801818381E090E09383828352
S11321A08081813011F411861086A701C6010E9436
S11321B09A0FB60182E192E00E94090F892B39F44B
S11321C0EE81FF81C280D380D982C882C9CFC88002
S11321D0D980C6CFCF93DF93C0911202D09113025E
S11321E0BE016E5F7F4F82E192E00E94090F00976B
S11321F049F0688179810E94B01281E090E0DF911A
S1132200CF91089590E080E0FACFCF93DF93E091EF
S11322101202F09113028081918126813781EC01B1
S1132220AC81BD811296CD91DC911397249731F442
S1132230C2E0D0E01396DC93CE931297718360834F
S113224041155105B9F4A481B5814D915C91119763
S11322505583448311961C921E92B783A6830680ED
S1132260F781E02D7383628331832083DF91CF91E3
S11322700C94B01257834683F2CFAF92BF92CF92A1
S1132280DF92EF92FF920F931F93CF93DF93DC01C2
S1132290AD90BC90E501E881F9812A813B81DB01A5
S11322A0CD90DC90E6015B834A8381E090E0B0E06E
S11322B0A0E0309711F00097A9F4109779F10D90F0
S11322C0BC91A02D6D937C93E601F983E883DF91A3
S11322D0CF911F910F91FF90EF90DF90CF90BF901F
S11322E0AF90089500811181E801EA80FB802E15EA
S11322F03F0558F44E155F0518F42417350758F0B8
S1132300DF01E801E881F981D4CF2417350718F0FB
S11323104E155F05A8F790E080E0CBCFD501D2CF72
S1132320CF93DF93DC011296ED91FC9113970D90FE
S1132330BC91A02D12962D913C91DF01A41BB50BED
S1132340A217B30730F0420F531FDF91CF910C94C3
S11323503D1141505109420F531F4E1B5F0BF5CFE6
S11323608F929F92AF92BF92CF92DF92EF92FF92A1
S11323700F931F93CF93DF9300D0CDB7DEB7DC016B
S1132380CD90DC901197F6012281338112964D9104
S11323905C912417350708F471C01382128230E06F
S11323A020E0F601008111810115110509F457C0DF
S11323B0D801ED91FC911197428153814217530743
S11323C009F04DC023E0E22EF12C2D913C91F9014E
S11323D0F582E482A081B181109749F06D917C91DE
S11323E01197FB01628173814617570771F37C01D2
S11323F0F90111821082F601B183A08382E0C82E14
S1132400D12CD801ED91FC911197A080B1801A8252
S113241019821C968D919C911D978130910509F428
S113242042C088F18230910509F452C0039709F43F
S113243055C0D801ED91FC9184819581039761F495
S1132440468157814115510509F44DC0D582C48296
S1132450B801C7010E9490118501AB2891F60F9035
S11324600F90DF91CF911F910F91FF90EF90DF902C
S1132470CF90BF90AF909F908F9008952F5F3F4F64
S1132480338322838ECFF80186809780C4010E9413
S1132490CB0F9A838983892B61F6B40180E092E0A3
S11324A00E942710C6CF1A966D917C911B97AE019E
S11324B04F5F5F4F16968D919C910E94F20F00978B
S11324C009F4B7CFBC0180E092E00E944E10B1CF76
S11324D0F801808591850E94B011ABCF1496ED91DF
S11324E0FC910995A6CF15821482B6CFCF93DF93C2
S11324F0DB01ED91FC91A481B581A230B10568F5B1
S113250037832683119711F5EC012A813B81A88139
S1132510B98112968D919C91B901641B750B681752
S1132520790768F0480F591F5383428384E090E091
S11325309583848390E080E0DF91CF9108954150AA
S11325405109480F591F421B530BEECF22E030E0D4
S1132550358324830E949011EDCF87E090E0ECCF87
S1132560FB01DC0112964D915C9162817381A4811F
S1132570B58112968D919C91029719F4CF010C9418
S1132580CA00CF010C941201CB01DB0112966D91AC
S11325907C9113971496ED91FC9122813381223022
S11325A0310511F40C94EA000C940A01DC01129632
S11325B06D917C911397ED91FC9140815181DB01E8
S11325C0ED91FC91228933892115310519F04217C7
S11325D0530729F4DB01ED93FC930C94EA00F90111
S11325E0F1CFCF93DF9300D0CDB7DEB7BE016F5FDD
S11325F07F4F80E092E00E947E10BC0189819A8125
S11326000E94C4120F900F90DF91CF910895F89417
S1132610FFCFEEE008958F939F9380E00E94131301
S11326209F918F9118951F920F920FB60F921124BC
S11326302F933F934F935F936F937F93AF93BF9386
S1132640EF93FF930E940F10FF91EF91BF91AF9111
S11326507F916F915F914F913F912F910F900FBE9A
S11326600F901F9008951092810010928000109294
S113267082001092850010928400611520E1720797
S113268081059105A0F4E4E0660F771FEA95E1F770
S11326906150710981E092E096BB90936F00709352
S11326A08900609388008860809381000895611593
S11326B020E872078105910530F4660F771F615099
S11326C0710982E0E8CF6C3F2FEF720723E08207A5
S11326D0910558F442E096958795779567954A95C4
S11326E0D1F76150710983E0D6CF6115710520E1FE
S11326F08207910558F434E0969587957795679508
S11327003A95D1F76150710984E0C5CF26E09695DA
S11327108795779567952A95D1F76150710985E07A
S1132720BACF5058BB27AA270E94A9130C941C1592
S11327300E940E1538F00E94151520F039F49F3FC1
S113274019F426F40C940B150EF4E095E7FB0C94A5
S11327500515E92F0E942D1558F3BA176207730760
S11327608407950720F079F4A6F50C944F150EF420
S1132770E0950B2EBA2FA02D0B01B90190010C018D
S1132780CA01A0011124FF27591B99F0593F50F4A5
S1132790503E68F11A16F040A22F232F342F4427FD
S11327A0585FF3CF469537952795A795F0405395F5
S11327B0C9F77EF41F16BA0B620B730B840BBAF0C5
S11327C09150A1F0FF0FBB1F661F771F881FC2F730
S11327D00EC0BA0F621F731F841F48F48795779544
S11327E06795B795F7959E3F08F0B0CF9395880FFE
S11327F008F09927EE0F9795879508950E94E114A4
S113280008F481E008950E9417140C941C150E948A
S1132810151558F00E940E1540F029F45F3F29F079
S11328200C94051551110C9450150C940B150E9421
S11328302D1568F39923B1F3552391F3951B550B8B
S1132840BB27AA2762177307840738F09F5F5F4F7F
S1132850220F331F441FAA1FA9F335D00E2E3AF0BE
S1132860E0E832D091505040E695001CCAF72BD0D6
S1132870FE2F29D0660F771F881FBB1F2617370727
S11328804807AB07B0E809F0BB0B802DBF01FF2759
S113289093585F4F3AF09E3F510578F00C9405151C
S11328A00C9450155F3FE4F3983ED4F386957795E6
S11328B06795B795F7959F5FC9F7880F911D969512
S11328C0879597F90895E1E0660F771F881FBB1F6E
S11328D0621773078407BA0720F0621B730B840B1B
S11328E0BA0BEE1F88F7E09508950E94351588F01D
S11328F09F5798F0B92F9927B751B0F0E1F0660FC0
S1132900771F881F991F1AF0BA95C9F714C0B13000
S113291091F00E944F15B1E008950C944F15672F64
S1132920782F8827B85F39F0B93FCCF3869577952F
S11329306795B395D9F73EF4909580957095619518
S11329407F4F8F4F9F4F0895E89409C097FB3EF443
S113295090958095709561957F4F8F4F9F4F9923E8
S1132960A9F0F92F96E9BB279395F6958795779566
S11329706795B795F111F8CFFAF4BB0F11F460FF26
S11329801BC06F5F7F4F8F4F9F4F16C0882311F07E
S113299096E911C0772321F09EE8872F762F05C092
S11329A0662371F096E8862F70E060E02AF09A952D
S11329B0660F771F881FDAF7880F9695879597F922
S11329C00895990F0008550FAA0BE0E8FEEF1616BC
S11329D01706E807F907C0F012161306E407F5070F
S11329E098F0621B730B840B950B39F40A2661F083
S11329F0232B242B252B21F408950A2609F4A14026
S1132A00A6958FEF811D811D089597F99F6780E832
S1132A1070E060E008959FEF80EC089500240A942C
S1132A201616170618060906089500240A941216A5
S1132A301306140605060895092E0394000C11F4D8
S1132A40882352F0BB0F40F4BF2B11F460FF04C085
S1132A506F5F7F4F8F4F9F4F089557FD9058440FDE
S1132A60551F59F05F3F71F04795880F97FB991FE9
S1132A7061F09F3F79F087950895121613061406A6
S1132A80551FF2CF4695F1DF08C016161706180633
S1132A90991FF1CF86957105610508940895E8940E
S1132AA0BB2766277727CB0197F908950E94E11485
S1132AB008F48FEF08950E946E150C941C150E9463
S1132AC00E1538F00E94151520F0952311F00C9482
S1132AD005150C940B1511240C9450150E942D15FA
S1132AE070F3959FC1F3950F50E0551F629FF0015D
S1132AF0729FBB27F00DB11D639FAA27F00DB11D76
S1132B00AA1F649F6627B00DA11D661F829F2227FE
S1132B10B00DA11D621F739FB00DA11D621F839F85
S1132B20A00D611D221F749F3327A00D611D231F5B
S1132B30849F600D211D822F762F6A2F11249F57A9
S1132B4050409AF0F1F088234AF0EE0FFF1FBB1FAC
S1132B50661F771F881F91505040A9F79E3F51056B
S1132B6080F00C9405150C9450155F3FE4F3983EE7
S1132B70D4F3869577956795B795F795E7959F5F15
S1132B80C1F7FE2B880F911D9695879597F90895A7
S1132B90FA01EE0FFF1F309621053105A1F16115F1
S1132BA0710561F48038BFE39B0749F1689490385C
S1132BB0810561F08038BFEF9B0741F099234AF506
S1132BC0FF3FE1053105210519F1E8940894E795E3
S1132BD0D901AA2329F4AB2FBE2FF85FD0F310C07C
S1132BE0FF5F70F4A695E0F7F73950F019F0FF3A5B
S1132BF038F49F779F930DD00F9007FC9058089559
S1132C0046F00C940B1560E070E080E89FE30895B3
S1132C104FE79F775F934F933F932F930E94C31681
S1132C202F913F914F915F910E945B150C94201658
S1132C3029F416F00C9405150C944F150C940B15EF
S1132C400E943515A8F39638A0F707F80F92E89478
S1132C502BE33AEA48EB5FE70E9471150F920F925B
S1132C600F924DB75EB70F920E940B17E8E6F0E0A3
S1132C700E9452164F915F91EF91FF91E595EE1FDF
S1132C80FF1F49F0FE57E0684427EE0F441FFA95F2
S1132C90E1F74195550B0E9485160F9007FE0C94A1
S1132CA079160895DF93CF931F930F93FF92EF92BA
S1132CB0DF927B018C01689406C0DA2EEF010E943A
S1132CC06E15FE01E894A591259135914591559194
S1132CD0A6F3EF010E94A913FE019701A801DA945B
S1132CE069F7DF90EF90FF900F911F91CF91DF91E3
S1132CF008959B01AC0160E070E080E89FE30C94D0
S1132D0003140C9405150C943F170E943515D8F341
S1132D109923C9F3940F511DA3F39150504094F09B
S1132D2059F0882332F0660F771F881F9150504066
S1132D30C1F79E3F51052CF7880F911D96958795F5
S1132D4097F908955F3FACF0983E9CF0BB278695B9
S1132D5077956795B79508F4B1609395C1F7BB0F64
S1132D6058F711F460FFE8CF6F5F7F4F8F4F9F4F8D
S1132D70E3CF0C94501516F00C943F170C940B15DC
S1132D8068940C9405150E943515A8F39923C1F392
S1132D90AEF3DF93CF931F930F93FF92C92FDD27D9
S1132DA088232AF02197660F771F881FDAF720E01F
S1132DB030E040E85FEB9FE3883920F0803E38F054
S1132DC021968F770E949213E0E9F0E004C00E94FC
S1132DD09213EDEBF0E00E9452168B01BE01EC0160
S1132DE0FB2E6F5771097595771F880B990B0E94FD
S1132DF0A61428E132E741E35FE30E946E15AF2D8C
S1132E009801AE01FF900F911F91CF91DF910E9425
S1132E10A9130C941C15FA01DC01AA0FBB1F9B011A
S1132E20AC01BF5728F4222733274427507820C009
S1132E30B75190F4AB2F0024469537952795011C84
S1132E40A395D2F3002071F0220F331F441FB395D2
S1132E50DAF30ED00C94911361307105A0E88A075F
S1132E60B94630F49B01AC01662777278827907810
S1132E70309621F0208331834283538308959F3F0A
S1132E8031F0915020F4879577956795B795880F21
S1132E90911D9695879597F90895A1E21A2EAA1B7C
S1132EA0BB1BFD010DC0AA1FBB1FEE1FFF1FA217F6
S1132EB0B307E407F50720F0A21BB30BE40BF50BF3
S1132EC0661F771F881F991F1A9469F7609570957C
S1132ED0809590959B01AC01BD01CF010895EE0F43
S1132EE0FF1F0590F491E02D0994AEE0B0E0EBE70C
S1132EF0F7E10C94241A0D891E8986E08C831A83C9
S1132F0009838FEF9FE79E838D83AE01475E5F4FFA
S1132F106F89788DCE0101960E9498172F8138858C
S1132F20020F131FF80110822E96E4E00C94401A4D
S1132F30ABE0B0E0EEE9F7E10C94161A7C013B013A
S1132F408A01FC0117821682838181FFC8C1CE01E8
S1132F5001965C01F7019381F30193FD859193FF41
S1132F6081913F01882309F453C1853239F493FDDB
S1132F70859193FF81913F01853229F4B70190E057
S1132F800E948819E7CF912C212C312CFFE1F315F5
S1132F9038F08B3211F190F4803209F1833229F147
S1132FA037FC3CC020ED280F2A3050F536FE20C0F7
S1132FB08AE0989E200D1124922E06C08D3291F045
S1132FC0803371F7689430F8F30193FD859193FF92
S1132FD081913F018111DACF21C0689431F868945E
S1132FE032F8F2CF689433F8EFCF689434F8ECCF2A
S1132FF0EAE02E9E200D1124222E689435F8E4CFA9
S11330008E3229F436FC04C1689436F8DDCF8C3650
S113301019F4689437F8D8CF8836B1F2982F9F7D89
S113302095549330E0F08336A1F18337C1F18335B1
S113303009F063C02801F2E04F0E511CF801C08072
S1133040D180692D70E036FC02C06FEF7FEFC601BE
S11330500E9472194C01689437F882010AC00C5F0F
S11330601F4FFFE3F98388248394912C6501E8942E
S113307037F833FE2DC0522C8114910471F555207C
S113308009F468CFB70180E290E00E9488195A944D
S1133090F6CFF801808189830E5F1F4FE4CF2801AA
S11330A0F2E04F0E511CF801C080D180692D70E010
S11330B036FC02C06FEF7FEFC6010E947D194C0100
S11330C08201D5CFB70180E290E00E9488192A944A
S11330D02814190409F0B0F7CECFF60137FC859116
S11330E037FE81916F01B70190E00E948819511059
S11330F05A94F1E08F1A9108BFCF843619F08936BB
S113310009F077C0F80137FE6BC06081718182815C
S113311093810C5F1F4FF32DFF763F2E97FF09C05D
S113312090958095709561957F4F8F4F9F4F6894D0
S113313037F82AE030E0A5010E94B819C82ECA1851
S11331408C2C432C36FE0CC0E89440F8C91440F48F
S113315034FE05C032FC03C0F32DFE7E4F2E892CB5
S113316044FE95C0FE01EC0DF11D8081803309F011
S113317087C0242D297E422E842D8870582E43FC2E
S113318095C040FE8FC09C2C821418F42C0C922CF9
S1133190981844FE91C0B70180E390E00E9488191A
S11331A042FE09C088E790E041FE02C088E590E055
S11331B0B7010E948819C91408F48AC0CA94D12C92
S11331C09FEFC91AD90ACA0CDB1CF60182916F0160
S11331D0B70190E00E948819AC14BD04B1F74FCF39
S11331E060817181072E000C880B990B0E5F1F4FB5
S11331F092CFD32CE894D4F82AE030E0853739F123
S1133200232D297FD22E8F3601F148F48835A9F079
S1133210F701868197812B96E2E10C94321A80376C
S113322049F08837A9F7D4FE02C06894D2F820E1A7
S113323030E00DC06894D4F8F6CF34FE03C0822F7A
S11332408660D82E20E132E002C028E030E0F801A8
S1133250D7FE0FC060817181828193810C5F1F4F03
S1133260A5010E94B819C82ECA183D2CE89437F855
S113327067CF6081718190E080E00E5F1F4FF0CFD7
S113328042FC02C0839478CF8394839475CF842DB9
S1133290867809F471CFF6CFB70180E290E00E94FE
S11332A0881983948214C0F3512C73CF522C58186C
S11332B0821408F46ECFF8CF842D867809F47BCF7E
S11332C08BE241FE80E247FC8DE2B70190E071CFD2
S11332D0B70180E390E00E9488199A946CCF8FEF35
S11332E09FEF99CFFC010590615070400110D8F711
S11332F0809590958E0F9F1F0895FC01615070403A
S113330001900110D8F7809590958E0F9F1F089516
S11333100F931F93CF93DF93182F092FEB018B810A
S113332081FD09C01FEF0FEF812F902FDF91CF9107
S11333301F910F91089582FF14C02E813F818C81CB
S11333409D81281739073CF4E881F981CF01019662
S11333509983888310838E819F8101969F838E83B6
S1133360E3CFE885F985812F0995892BA1F3DACF7D
S1133370FA01AA27283051F1203181F1E8946F93A2
S11333806E7F6E5F7F4F8F4F9F4FAF4FB1E03ED048
S1133390B4E03CD0670F781F891F9A1FA11D680FE6
S11333A0791F8A1F911DA11D6A0F711D811D911D19
S11333B0A11D20D009F468943F912AE0269F11248E
S11333C03019305D3193DEF6CF010895462F4770F2
S11333D0405D4193B3E00FD0C9F7F6CF462F4F704D
S11333E0405D4A3318F0495D31FD4052419302D0AB
S11333F0A9F7EACFB4E0A695979587957795679551
S1133400BA95C9F700976105710508959B01AC0150
S11334100A2E06945795479537952795BA95C9F777
S1133420620F731F841F951FA01D08952F923F9252
S11334304F925F926F927F928F929F92AF92BF92C0
S1133440CF92DF92EF92FF920F931F93CF93DF936C
S1133450CDB7DEB7CA1BDB0B0FB6F894DEBF0FBEC9
S1133460CDBF09942A88398848885F846E847D8416
S11334708C849B84AA84B984C884DF80EE80FD8018
S11334800C811B81AA81B981CE0FD11D0FB6F8948E
S1113490DEBF0FBECDBFED010895F894FFCF4F
S113349EF5020000120100000000FF000000000011
S11334AE0000160100001A0100001E010000220196
S11334BE0000260100000000000000800000000053
S11334CE00000000000000050000000000000000E5
S11334DE00000004000000000000000000000003D3
S11334EE00000000000000000000000200000000C8
S11334FE00000000000000010000000000000000B9
S113350E00000100040000000000000000005D0542
S113351EDD0400001E001D000700EE02EE02EE02A6
S113352EEE020100000000BF02F90B3C013F014214
S113353E75732D53746F7020536861646500262073
S113354E537472656574204C6967687400436F6EBA
S113355E74726F6C6C6572205379730076322E30F0
S113356E202D2035205461736B730053756E2054D7
S113357E7261636B65720053797374656D20526565
S113358E61647900352D5461736B204F53454B00A4
S113359E1606930207007A0205006802010038023B
S11335AE030000017D04F5026A027002010022028A
S11335BE0100260203003E02E803E8034C02E8037E
S11335CEE8035A02E803E8033E024C025A022904B5
S11335DE6A020000AF0200000000000031046A021B
S11335EE0000D90200000000000039046A02000045
S11335FEE7020000000000006A024104FFFF010020
S113360E74020300BD02CB02E702840287028A021F
S113361E8D0290024504054A04024F040354040526
S113362E590404A102AF02BD02CB02D902E702F58E
S113363E020B0382012A01000200440C80FF010BDD
S113364E03820136010100007F0505050103037E97
S113365E014201020100CF05040401070380014E5B
S113366E010301008C060303010B0382015A0104BA
S113367E0000D3060202010B03820166010500005D
S113368E66080101010B0382017201060300E20EBA
S113369E000001DE0480005E048000000000004F84
S11336AE504E00434C53004F4E004F464600574574
S11336BE5354003C2D2D2053554E00454153540078
S11336CE53554E202D2D3E0053554E2043454E54FA
S11336DE4552004F4E2000573A25336420453A2573
S11336EE3364204176673A25336400536861646518
S11336FE20573A257320453A2573004C6967687440
S113370E20573A257320453A25730054696D652078
S113371E253032643A253032643A2530326400530F
S113372E756E20547261636B6572202020202020F8
S113373E20002020202020202020202020202000B7
S113374E506F733A257320443A2564004E696768B6
S113375E743A25730000000000C50AF90B740AA51B
S10B376E0A460A600A520A002F
S9030000FC
